:100000000C94B2060C94F9060C94F9060C94F906BB
:100010000C94F9060C94F9060C94F9060C94F90664
:100020000C94F9060C94F9060C9401270C94D4272F
:100030000C94141E0C94F9060C94F9060C94F90611
:100040000C94F9060C94F9060C94F9060C94F90634
:100050000C94F9060C94751E0C94F9060C94F90690
:100060000C94F9060C94F9060C94F9060C94F90614
:100070000C94F9060C94F9060C94F9060C94F90604
:100080000C94F9060C94F9060C94F9060C94F906F4
:100090000C94F9060C94F9060C94F9060C94F906E4
:1000A0000C94F9060C94F9060C94F90629001E002C
:1000B0001F00200021002200230024002B00140038
:1000C0001A000800150017001C0018003900040071
:1000D0001600070009000A000B000D00E1001D00DA
:1000E0001B0006001900050011001000E000E300ED
:1000F000E2002C00E6000151E4005000250026003B
:1001000027002D002E002A0049004A000C00120092
:1001100013002F00300031004C004D000E000F0086
:10012000330034002800AE00A900AA0036003700D2
:100130003800E500520051004F00000035003A0041
:100140003B003C003D003E003F004000010001003C
:1001500052000100010001000100010001005000F7
:1001600051004F00010001000100010001000100E9
:100170000100010001000100010001000100010077
:1001800001000100010001000100AC00410042003B
:1001900043004400450001000100A60001000100E9
:1001A0000100010001000100010001000100010047
:1001B00001000100010001000100A8000100010090
:1001C0000100010001000100AB0000000100680017
:1001D00069006A006B006C006D006E000100010098
:1001E0000100010001000100010001000100010007
:1001F00001000100010001000100010001000100F7
:1002000001000100010001000100010001000100E6
:100210000100010001000100010001006F007000F9
:100220007100720073000100010001000100010073
:1002300001000100010001000100010001000100B6
:1002400001000100010001000100010001000100A6
:100250000100010001000100010000000100010097
:100260000100010001000100010001000100010086
:100270000100010001000100010001000100010076
:100280000100010001000100010001000100010066
:100290000100010001000100010001000100010056
:1002A0000100010001000100010001000100010046
:1002B0000100010001000100010001000100010036
:1002C0000100010001000100010001000100010026
:1002D0000100010001000100010001000100010016
:1002E0000100010001000100010000000100010007
:1002F00001000100010001000100010001000100F6
:1003000001000100010001000100010001000100E5
:1003100001000100010001000100010001000100D5
:1003200001000100010001000100010001000100C5
:1003300001000100010001000100010001000100B5
:1003400001000100010001000100010001000100A5
:100350000100010001000100010001000100010095
:100360000100010001000100010001000100010085
:100370000100010001000100010000000100010076
:100380000100010001000100010001000100010065
:100390000100010001000100010001000100010055
:1003A0000100010001000100010001000100010045
:1003B0000100010001000100010001000100010035
:1003C0000100010001000100010001000100010025
:1003D0000100010001000100010001000100010015
:1003E0000100010001000100010001000100010005
:1003F00001000100010001000100010001000100F5
:1004000001000100010001000100000001000100E5
:1004100001000100010001000100010001000100D4
:1004200001000100010001000100010001000100C4
:1004300001000100010001000100010001000100B4
:1004400001000100010001000100010001000100A4
:100450000100010001000100010001000100010094
:100460000100010001000100010001000100010084
:100470000100010001000100010001000100010074
:100480000100010001000100010001000100010064
:100490000100010001000100010000000100010055
:1004A0000100010001000100010001000100010044
:1004B0000100010001000100010001000100010034
:1004C0000100010001000100010001000100010024
:1004D0000100010001000100010001000100010014
:1004E0000100010001000100010001000100010004
:1004F00001000100010001000100010001000100F4
:1005000001000100010001000100010001000100E3
:1005100001000100010001000100010001000100D3
:1005200001000100010001000100000001000100C4
:1005300001000100010001000100010001000100B3
:1005400001000100010001000100010001000100A3
:100550000100010001000100010001000100010093
:100560000100010001000100010001000100010083
:100570000100010001000100010001000100010073
:100580000100010001000100010001000100010063
:100590000100010001000100010001000100010053
:1005A0000100010001000100010001000100010043
:1005B0000100010001000100010000000100010034
:1005C0000100010001000100010001000100010023
:1005D0000100010001000100010001000100010013
:1005E0000100010001000100010001000100010003
:1005F00001000100010001000100010001000100F3
:1006000001000100010001000100010001000100E2
:1006100001000100010001000100010001000100D2
:1006200001000100010001000100010001000100C2
:1006300001000100010001000100010001000100B2
:1006400001000100010001000100000001000100A3
:100650000100010001000100010001000100010092
:100660000100010001000100010001000100010082
:100670000100010001000100010001000100010072
:100680000100010001000100010001000100010062
:100690000100010001000100010001000100010052
:1006A0000100010001000100010001000100010042
:1006B0000100010001000100010001000100010032
:1006C0000100010001000100010001000100010022
:1006D0000100010001000100010000000100010013
:1006E0000100010001000100010001000100010002
:1006F00001000100010001000100010001000100F2
:1007000001000100010001000100010001000100E1
:1007100001000100010001000100010001000100D1
:1007200001000100010001000100010001000100C1
:1007300001000100010001000100010001000100B1
:1007400001000100010001000100010001000100A1
:100750000100010001000100010001000100010091
:100760000100010001000100010000000100010082
:100770000100010001000100010001000100010071
:100780000100010001000100010001000100010061
:100790000100010001000100010001000100010051
:1007A0000100010001000100010001000100010041
:1007B0000100010001000100010001000100010031
:1007C0000100010001000100010001000100010021
:1007D0000100010001000100010001000100010011
:1007E0000100010001000100010001000100010001
:1007F00001000100010001000100000001000100F2
:1008000001000100010001000100010001000100E0
:1008100001000100010001000100010001000100D0
:1008200001000100010001000100010001000100C0
:1008300001000100010001000100010001000100B0
:1008400001000100010001000100010001000100A0
:100850000100010001000100010001000100010090
:100860000100010001000100010001000100010080
:100870000100010001000100010001000100010070
:100880000100010001000100010000000100010061
:100890000100010001000100010001000100010050
:1008A0000100010001000100010001000100010040
:1008B0000100010001000100010001000100010030
:1008C0000100010001000100010001000100010020
:1008D0000100010001000100010001000100010010
:1008E0000100010001000100010001000100010000
:1008F00001000100010001000100010001000100F0
:1009000001000100010001000100010001000100DF
:1009100001000100010001000100000001000100D0
:1009200001000100010001000100010001000100BF
:1009300001000100010001000100010001000100AF
:10094000010001000100010001000100010001009F
:10095000010001000100010001000100010001008F
:10096000010001000100010001000100010001007F
:10097000010001000100010001000100010001006F
:10098000010001000100010001000100010001005F
:10099000010001000100010001000100010001004F
:1009A0000100010001000100010000006432146434
:1009B0003214783C1E1E140A0500000000010101DB
:1009C0000202030405050607090A0B0C0E0F11129B
:1009D000141517191B1D1F212325282A2C2F3134EC
:1009E00036393B3E414346494C4F5255585A5D615A
:1009F00064676A6D707376797C7F8386898C8F9249
:100A000095989B9EA2A5A7AAADB0B3B6B9BCBEC12E
:100A1000C4C6C9CBCED0D3D5D7DADCDEE0E2E4E67B
:100A2000E8EAEBEDEEF0F1F3F4F5F6F8F9FAFAFB9B
:100A3000FCFDFDFEFEFEFFFFFFFFFFFFFFFEFEFED3
:100A4000FDFDFCFBFAFAF9F8F6F5F4F3F1F0EEED42
:100A5000EBEAE8E6E4E2E0DEDCDAD7D5D3D0CECBD1
:100A6000C9C6C4C1BEBCB9B6B3B0ADAAA7A5A29E43
:100A70009B9895928F8C898683807C797673706D34
:100A80006A6764615D5A5855524F4C494643413E2E
:100A90003B393634312F2C2A282523211F1D1B19C1
:100AA00017151412110F0E0C0B0A09070605050481
:100AB000030202010101000000000000000001012A
:100AC000010101010101010202020202020202020D
:100AD00003030303030303030404040404040505DC
:100AE000050505060606060607070707080808089D
:100AF0000909090A0A0A0A0B0B0B0C0C0C0D0D0D47
:100B00000E0E0F0F0F1010111111121213131414D7
:100B1000151516161717181819191A1A1B1C1C1D4B
:100B20001D1E1F1F202021222223242525262727A2
:100B300028292A2B2B2C2D2E2F2F303132333435D0
:100B400036363738393A3B3C3D3E3F4041424344DC
:100B5000464748494A4B4C4D4F50515253555657B2
:100B6000585A5B5C5E5F606263646667696A6C6D5D
:100B70006E707173747678797B7C7E8081838486D5
:100B8000888A8B8D8F91929496989A9B9D9FA1A312
:100B9000A5A7A9ABADAFB1B3B5B7B9BBBDBFC1C414
:100BA000C6C8CACCCFD1D3D6D8DADCDFE1E4E6E8D8
:100BB000EBEDF0F2F5F7FAFCFF12036B006500793C
:100BC0000062006F00610072006400000016037193
:100BD000006D006B006200750069006C00640065C8
:100BE00000720000000403090409026D0004010002
:100BF000A0FA09040000010301010009211101000C
:100C0000012240000705810308000A0904010001D0
:100C100003010200092111010001224D0007058294
:100C20000308000A09040200010300000009211161
:100C30000100012236000705830308000A090403A6
:100C40000001030000000921110100012239000701
:100C50000584032000011201100100000008EDFED0
:100C6000606001000102000105010906A1010507FC
:100C700019E029E71500250195087501810205088D
:100C800019012905950575019102950175039101D9
:100C90000507190029F71500250195F8750181024E
:100CA000C005010980A10185021601002603001A72
:100CB00081002A8300751095018100C0050C09018F
:100CC000A1018503160100269C021A01002A9C023C
:100CD000751095018100C005010902A1010901A15A
:100CE00000050919012905150025019505750181E2
:100CF000029501750381010501093009311581252E
:100D00007F95027508810609381581257F95017543
:100D1000088106050C0A38021581257F95017508A2
:100D20008106C0C005010906A101050719E029E7F0
:100D3000150025019508750181029501750881014D
:100D4000050819012905950575019102950175039D
:100D500091010507190029FF150026FF009506756A
:100D6000088100C011241FBECFEFDAE0DEBFCDBF87
:100D700004B603FE27C080919F029091A002A0912B
:100D8000A102B091A2028730904BA740B04BD1F4A2
:100D900010929F021092A0021092A1021092A20241
:100DA00014BE84B7877F84BF0FB6F894A89580914E
:100DB0006000886180936000109260000FBEE0E0E8
:100DC000F8E3099511E0A0E0B1E0E8EBF6E502C038
:100DD00005900D92AA33B107D9F722E0AAE3B1E05A
:100DE00001C01D92AF39B207E1F70E9455240C945F
:100DF000252B0C94000090E080E00895089508955C
:100E000081E00895089581E008950C9400070E9400
:100E100060162FEF84E39CE0215080409040E1F782
:100E200000C000000C94981EEF92FF920F931F9346
:100E3000CF93DF937C01DC010D911C911197809180
:100E40008801811143C012968C918823D1F1C80189
:100E50000E94E41BC82F682FC8010E948E1BB80196
:100E60008C2F0E947F08EC01B7010E9405078823A0
:100E700009F468C0B701CE010E94890A882309F4E9
:100E800061C0CE33B0E7DB0770F4C433E0E7DE07C0
:100E900010F5C130F0E7DF0709F45CC050F5C1156B
:100EA000D04709F44AC081E080933C0180933D0122
:100EB000C701DF91CF911F910F91FF90EF900C949C
:100EC0000307C8010E94BB1BC82FC9CFC8010E94DD
:100ED000E41BB801C6CFFE01E553F047D7011296D7
:100EE0008C91E930F10508F040C0E95DF44D0C94B7
:100EF000D72ACE01825090474397A8F6F701828106
:100F00008823B1F20E94A61D811102C00E94851D96
:100F10000E94C31D90E09093910280939002FE0185
:100F2000E350F047809190028160E231F10508F0D2
:100F300047C0E05DF44D0C94D72AF70182818111FE
:100F40000E94070780E0DF91CF911F910F91FF90E2
:100F5000EF900895D70112968C91882399F3809190
:100F60001B02816080931B02EDCF882359F30E94FE
:100F7000CC0EE8CF882331F30E94C20EE3CF882342
:100F800009F30E949F0DDECF8823E1F20E94B70D86
:100F9000D9CF8823B9F20E94D60DD4CF882391F2FD
:100FA0000E94EE0DCFCF882369F20E94060ECACFB1
:100FB000882341F20E941E0EC5CF8091900282606C
:100FC00080939002809190020E94C71D0E9460163B
:100FD000B9CF809190028460F3CF809190028860B5
:100FE000EFCF809190028061EBCF80919002806280
:100FF000E7CF809190028064E3CF80919002806877
:10100000DFCF809190028C60DBCF809190028E7F49
:10101000D7CF809190028D7FD3CF809190028B7F2C
:10102000CFCF80919002877FCBCF809190028F7E2F
:10103000C7CF809190028F7DC3CF809190028F7B2C
:10104000BFCF809190028F77BBCF80919002837F3A
:10105000B7CF90919002892F97FB87F98058B0CF36
:10106000882361F010923C010E94441E90933B0142
:1010700080933A0182E00E94C51364CF80913C01C5
:1010800081110FC080913A0190913B010E94501E46
:10109000883C910530F486E20E949A1286E20E9412
:1010A000761382E00E94CC134DCF882351F010922A
:1010B0003D010E94441E90933B0180933A0180E2DF
:1010C000DACF80913D0181110FC080913A0190915A
:1010D0003B010E94501E883C910530F487E20E943B
:1010E0009A1287E20E94761380E2DCCF0C94D80A31
:1010F0000C94DA0A0C9402070C947A080895E72FEE
:10110000F0E099E0899FE00DF11D112483E0EE0FDE
:10111000FF1F8A95E1F7E60FF11DEE0FFF1FE45563
:10112000FF4F859194910895FC01EE0FFF1FE45548
:10113000F64F8591949108950E947F080E940D0AB0
:101140009C01811540E4940708F097C0211580E3C5
:10115000380708F0FAC0203E310508F074C0203C82
:10116000310508F0E5C0283A310588F4253A310503
:1011700008F0E2C02130310509F477C0C9010497B5
:10118000813A910508F471C030E020E06EC0C901D9
:10119000885A91094597C0F7283A310509F4FEC0ED
:1011A000293A310509F4FDC02A3A310509F4FCC099
:1011B0002B3A310509F4FBC02C3A310509F4FAC089
:1011C0002B3B310509F4F9C02C3B310509F4F8C07B
:1011D0002D3A310509F4F7C0203B310509F4F6C07A
:1011E0002E3A310509F4F5C02F3A310509F4F4C05F
:1011F000213B310509F4F3C0223B310509F4F2C06B
:10120000233B310509F4F1C0243B310509F4F0C05A
:10121000253B310509F4EFC0263B310509F4EEC04A
:10122000273B310509F4EDC0283B310509F4ECC03A
:10123000293B310509F4EBC02A3B310509F4EAC02A
:1012400020E034E412C0211590E2390780F42F3FEA
:10125000310509F050F4283E310538F0C901805FAE
:1012600091093065409708F08FCFC9010895C901F1
:101270009F700E9494089C01F8CF8115944508F056
:1012800041C0211583E5380708F06AC0211592E5B1
:10129000390738F5211541E5340708F05CC0211500
:1012A00080E5380708F454C0C90134E09695879565
:1012B0003A95E1F78370422F46954695437090E248
:1012C000499FA0011124582B822F837021E030E028
:1012D00002C0220F331F8A95E2F7242B352B3C687E
:1012E000C4CFC9018370992741E050E002C0440F88
:1012F000551F8A95E2F72695269580E2289F900152
:101300001124EBCF211596E5390748F4922F882751
:1013100021153545C8F59C01246F306AA6CFC90157
:1013200090563F708115904108F02ECF30629DCFCE
:10133000C901805C91099DCF253A310549F1263AD2
:10134000310549F522E830E490CF3327306C8DCF5A
:101350003F70306A8ACF322F2227216F306A85CFC3
:10136000C9018370992741E050E002C0440F551F26
:101370008A95E2F72695269580E2289F9001112410
:10138000242B352B3A6871CF88279F719C01CECFD3
:1013900021E830E46ACF23E830E467CF22EE34E47A
:1013A00064CF29EE34E461CF2AEE34E45ECF25EB3E
:1013B00034E45BCF26EB34E458CF23EB34E455CF51
:1013C00024EB34E452CF27EB34E44FCF2CEC34E45D
:1013D0004CCF2DEC34E449CF23E835E446CF2AE85E
:1013E00035E443CF22E935E440CF24E935E43DCF6D
:1013F00021E236E43ACF23E236E437CF24E236E482
:1014000034CF25E236E431CF26E236E42ECF27E290
:1014100036E42BCF2AE236E428CF803E910581F1D5
:10142000C8F48133910509F462C048F4893291050A
:1014300009F456C08A32910509F460C008958933D1
:101440009105B9F082389105A1F08533910509F431
:1014500040C00895863E910561F138F4823E9105C1
:10146000B1F0833E9105E1F00895873E910551F179
:101470000895209190022370D9F080EE90E00895B5
:101480002091900220FF14C089E390E008952091FC
:10149000900222FF0DC024FD09C083EE90E0089564
:1014A0002091900222FD31C024FF02C090E080E034
:1014B00008952091900223FFFBCF24FDF7CF87EE04
:1014C00090E008952091900223FFEECF86EE90E009
:1014D00008952091900225FFEBCF89E290E00895D6
:1014E0002091900225FFE4CF85E390E008952091BC
:1014F000900226FFDDCF8AE290E0089520919002CD
:1015000026FFD6CF81E390E0089582EE90E0089523
:1015100008950F931F93CF938C01FB01828181115A
:1015200006C0C1E08C2FCF911F910F910895C091FB
:101530004B01C11125C00531104799F70E94880A57
:1015400081E080934B010E94441E90934A01809356
:10155000490110923E011092400110923F011092F9
:1015600042011092410110924401109243011092E5
:101570004601109245011092480110924701D2CFC6
:101580008091490190914A010E94501E883C91052A
:1015900040F680913E01E82FF0E0EE0FFF1FE15C86
:1015A000FE4F118300838F5F80933E01C0E0BACF6E
:1015B0000C94FE060C94FF0685B7806885BF85B73E
:1015C000806885BFA4E1B1E061E070E08D91E82F13
:1015D000E295EF70F0E041A18F709B0101C0220FF6
:1015E0008A95EAF7922F9095942391A382A1822B5A
:1015F00082A381E0AC31B80749F7ACE1B1E061E02A
:1016000070E08D91E82FE295EF70F0E041A18F70CE
:101610009B0101C0220F8A95EAF7922F909594239F
:1016200091A382A1822B82A381E0A532B80749F75A
:10163000E5E5F1E0ACE4B1E08EE591E011921D92B8
:101640008E179F07D9F70C9476084F925F926F928E
:101650007F928F929F92AF92BF92CF92DF92EF9242
:10166000FF920F931F93CF93DF9384E1E82E81E0E5
:10167000F82E512C412CCC24C394D12CBB24B394F0
:10168000D7018D917D01E82FE295EF70F0E091A1F7
:101690008F70960101C0220F8A95EAF7892F822B5D
:1016A00081A382A1722E7094872182A3B0EABA9599
:1016B000F1F7C601042C01C0880F0A94EAF7682EDE
:1016C000A82EA0940CE411E04CE151E0D801812C4B
:1016D0009D90EA016991AE01862F82958F7090E00E
:1016E000EC0188A190E06F7002C0959587956A958E
:1016F000E2F7BD016150710980FD51C0862D892935
:10170000EB0188838881981611F088248394D1E0B6
:10171000A535BD07E9F681A1782271A282A1282B07
:1017200022A3882041F0B0925E010E94441E909353
:10173000600180935F01EFEF4E1A5E0AF8E04F16EA
:10174000510409F09DCF80915E018823A1F0809122
:101750005F01909160010E94501E069760F0E5E5E0
:10176000F1E0D8018D918D018193B1E005351B0722
:10177000C1F710925E010E94780881E0DF91CF915D
:101780001F910F91FF90EF90DF90CF90BF90AF909F
:101790009F908F907F906F905F904F9008958A2DCB
:1017A0008921AECFE82FF0E0EB5AFE4F80810895FB
:1017B00008959C01CB0165B1542F5095562365B116
:1017C000462B6FB7F894820F931F2817390711F42F
:1017D0006FBF0895F90171919F01E8E045B90000DC
:1017E00000C077FF55B9770F000000C000C000C0EF
:1017F00055B900C0EA9591F7E8CFFC0194B1942B5C
:1018000094B99B01220F331F620F731FCF010E94F7
:10181000D90B87EC90E00197F1F700C00000089524
:1018200040E20C94FD0BAF92BF92CF92DF92EF9209
:10183000FF920F931F93CF93DF937C01E901842FD5
:10184000242F662309F43FC0C42ED12C8FEF90E0E3
:10185000861B9109489F8001499F100D1124212F5B
:10186000812F9927C81AD90A9CE3A92EB12CC70148
:10187000B5010E94AF2AFB01BC01C69EC001C79EF4
:10188000900DD69E900D1124B5010E94AF2AE33031
:10189000F10509F443C080EFE816F10468F4E13083
:1018A000F10591F13297A1F18CE3E816F10440F1D2
:1018B00080E020E040E007C0E430F10599F1842F9A
:1018C000861B3597A9F7E42FF0E0E754F54F4491D4
:1018D000E22FF0E0E754F54F9491E82FF0E0E75461
:1018E000F54FE49149839883EA83DF91CF911F916B
:1018F0000F91FF90EF90DF90CF90BF90AF90089541
:10190000812F262F210FDFCF812F242F461BDBCFE6
:10191000862F810FE42F412F2E2FD5CFE42FE61BEA
:10192000842FF9CF842F462F410FCDCF88E090E050
:101930000C94E52AAB01BC0188E090E00C94032BE9
:10194000CF93DF9300D000D0CDB7DEB7E8E4F2E06C
:1019500083E0808311828FEF8283838380914802AA
:1019600090914902A0914A02B0914B0289839A83D7
:10197000AB83BC83BC01CD010F900F900F900F90F3
:10198000DF91CF910C949A0C80914802E0E5F2E04F
:1019900080FF06C064E170E080E592E00C94100CDA
:1019A000118210821282339682E0EC38F807C1F778
:1019B000F1CFE0E5F2E0818360834283339692E0E9
:1019C000EC38F907C1F70C94C40CEF92FF920F9317
:1019D0001F93CF93DF9300D00F92CDB7DEB7182FB0
:1019E000E92EF62E042F8091480290914902A09191
:1019F0004A02B0914B0280934C0290934D02A09307
:101A00004E02B0934F028091480280FF1FC09E019A
:101A10002F5F3F4F812F9E2D0E94130C80914C020F
:101A200010FB87F980934C02169580914D028078C7
:101A3000182BE0FA17F910934D02F0924E02009322
:101A40004F024B8169818A810E94D90C0F900F90BF
:101A50000F90DF91CF911F910F91FF90EF9008951C
:101A60000F931F93CF93DF9300D000D00F92CDB789
:101A7000DEB789839D83062F142F8091480280FF53
:101A800054C0982F9E77923091F589819D810E9454
:101A9000E50C80914802B981B0FB87F98093480238
:101AA000B695809149028078B82B8D8180FBB7F97B
:101AB000B093490200934A0210934B02809148026E
:101AC00090914902A0914A02B0914B0289839A8376
:101AD000AB83BC83BC01CD010F900F900F900F9092
:101AE0000F90DF91CF911F910F910C949A0C982F2A
:101AF00096959F732EE3290F2F73243018F41091BD
:101B00004B02C7CF965C9F73993018F6881F8827C1
:101B1000881F909149029D83990F982B9983AD81DD
:101B2000A7FBAA27A0F9AD83B4CF0F900F900F9019
:101B30000F900F90DF91CF911F910F910895E8E4DE
:101B4000F2E02081221F2227221F30914902432FD9
:101B5000440F842F822B37FB992790F9089668E66B
:101B600071E00E94C32A438162810C94300D209160
:101B70004802221F2227221F30914902432F440F7F
:101B8000842F822B37FB992790F98830910540F4F8
:101B9000805A9E4F40914B0260914A020C94300D46
:101BA000089768E671E00E94C32AF4CF60914A0268
:101BB000683F90F4685F80914802881F8827881FDB
:101BC00090914902292F220F97FB992790F9409174
:101BD0004B02822B0C94300D6FEFEDCF60914A02D7
:101BE000683090F0685080914802881F8827881FCD
:101BF00090914902292F220F97FB992790F9409144
:101C00004B02822B0C94300D60E0EDCF40914B02E3
:101C1000483F90F4485F80914802881F8827881FBA
:101C200090914902292F220F97FB992790F96091F3
:101C30004A02822B0C94300D4FEFEDCF40914B02B6
:101C4000483090F0485080914802881F8827881FAC
:101C500090914902292F220F97FB992790F96091C3
:101C60004A02822B0C94300D40E0EDCFCF93DF93EE
:101C700000D000D0CDB7DEB79091480290FF47C0AA
:101C80009178811132C0926090934802809148020D
:101C900090914902A0914A02B0914B0289839A83A4
:101CA000AB83BC83BC01CD010E949A0C8091480299
:101CB000982F9E77923009F510927601881F882719
:101CC000881F90914902292F220F97FB992790F99D
:101CD00040914B0260914A02822B0F900F900F901F
:101CE0000F90DF91CF910C94300D893110F09063FB
:101CF000CBCF8F73880F982BC7CF982F9695925C78
:101D00009F739631D8F691E090937601D7CF0F90DC
:101D10000F900F900F90DF91CF91089580911B024B
:101D2000816080931B0281E0809377010E94A61D51
:101D3000811104C00E94851D0E94A00C0E94960C77
:101D4000609348027093490280934A0290934B0239
:101D50006E7761F40E94A00C0E94960C609348027A
:101D60007093490280934A0290934B0281E08093E2
:101D700076018091480280FF04C086958F730C9491
:101D8000360E08958091480286958F738F5F893152
:101D900008F081E00C94360ECF93DF9300D000D092
:101DA000CDB7DEB790914802892F8E7F90FF81607A
:101DB000809348028091480290914902A0914A0282
:101DC000B0914B0289839A83AB83BC83BC01CD0164
:101DD0000E949A0C8091480280FF0AC086958F73FA
:101DE0000F900F900F900F90DF91CF910C94360EC3
:101DF000109276019FEFA0E7B2E09150A040B04072
:101E0000E1F700C000000F900F900F900F90DF914E
:101E1000CF910C94C40CCF93C82F809174019091F2
:101E200075010E94501EEC2FF0E0EB54F64FE49148
:101E3000E817190609F010F50E94441E90937501E9
:101E400080937401E0917301F0E0E754F64F449100
:101E500080914802881F8827881F90914902292F66
:101E6000220F97FB992790F960914A02822B0E94DA
:101E7000E50C809173018F5F80937301CF9108957A
:101E8000CF93C82F80917101909172010E94501ED2
:101E9000EC2FF0E0EE54F64FE491E817190609F044
:101EA000E8F40E94441E9093720180937101409166
:101EB0004B0260914A0280916F01909170010E94E3
:101EC000E50C80916F0190917001019668E671E0D8
:101ED0000E94AF2A9093700180936F01CF91089573
:101EE000CF92DF92EF92FF921F93CF93DF93182F41
:101EF00080916D0190916E010E94501EE12FE69538
:101F0000F0E0EE54F64FE491E817190609F0C0F539
:101F10000E94441E90936E0180936D0180E5E82E2F
:101F200082E0F82ED0E0C0E098E6C92EDD24D394FC
:101F300080916B0190916C018C0F9D1FB6010E94E6
:101F4000AF2A970140914B0260914A020E94130C04
:101F5000629683E0E80EF11CC83681E0D80741F7AD
:101F60000E94C40C80916B0190916C0110FF10C015
:101F70000196BE010E94AF2A90936C0180936B0181
:101F8000DF91CF911F91FF90EF90DF90CF90089558
:101F90000197F2CFAF92BF92CF92DF92EF92FF9272
:101FA0000F931F93CF93DF93C82FDD24DA9480FD26
:101FB00002C0DD24D3948091690190916A010E944E
:101FC000501EC695EC2FF0E0E155F64FE491E8176E
:101FD000190611F008F053C00E94441E90936A0144
:101FE00080936901C0E5D2E010E000E097E0A92EFF
:101FF000B12C198218821A8287E0E82EF12CC12CAC
:10200000809168018C0D87FD8C5E082E000C990B69
:1020100080179107E9F420914B022E9DC0012F9D5E
:10202000900D1124B5010E94C32A462F80914802C9
:10203000881F8827881F90914902592F550F97FBB9
:10204000992790F99E0160914A02852B0E94130CFA
:10205000CD0C81E0E81AF10899F60F5F1F4F239627
:102060000431110531F60E94C40C8091680191E0A1
:10207000D91212C081110EC083E180936801DF91F3
:10208000CF911F910F91FF90EF90DF90CF90BF9075
:10209000AF9008958150F1CF90E00196B8010E9471
:1020A000C32AEBCFBF92CF92DF92EF92FF920F93B2
:1020B0001F93CF93DF93CDB7DEB7EC970FB6F894AD
:1020C000DEBF0FBECDBF182F8091660190916701D2
:1020D0000E94501EE12FF0E0E455F64FE491E8171E
:1020E000190611F008F07AC00E94441E909367010F
:1020F000809366018E010F5F1F4FF12CE12C680168
:10210000D80111961C9211971C9212961C92B12C18
:102110009091000180916501B99E800D1124843158
:102120000CF083E187FD80E0082E000C990B8E15E2
:102130009F05A1F480914802881F8827881F9091ED
:102140004902592F550F97FB992790F99801409113
:102150004B0260914A02852B0E94130CB394B7E0A6
:10216000BB12D6CFEFEFEE1AFE0A0D5F1F4FF4E160
:10217000EF16F10429F620E532E009E010E054E121
:10218000E52EF12CC801B7010E94C32AFC01EE0F15
:10219000FF1FE80FF91FEC0DFD1D8181D90111967C
:1021A0008C93119780818C93828112968C930F5F10
:1021B0001F4F2D5F3F4F0D31110521F70E94C40CB9
:1021C00090910001809165019130E1F48A3FB4F46F
:1021D00089EF809365018FEF80930001EC960FB635
:1021E000F894DEBF0FBECDBFDF91CF911F910F914D
:1021F000FF90EF90DF90CF90BF9008958150809333
:102200006501ECCF8B312CF08AE18093650181E090
:10221000E3CF8F5FF4CFCF93DF93809163019091F1
:1022200064010E94501E883E934028F10E94441E83
:1022300090936401809363018091610190916201A8
:102240000196817099279093620180936101C0E5A6
:10225000D2E09E0140914B0260914A0290E080E002
:102260000E94130C239682E0CC38D80791F7DF91B7
:10227000CF910C94C40CDF91CF9108958091760199
:10228000882371F18091480286958F739EE3980FA1
:102290009F73943018F482500C940B0F9AE3980FAC
:1022A0009F73933018F486500C94400F97E3980F67
:1022B0009F73963018F489500C94700F91E3980F27
:1022C0009F73963018F48F500C94CA0F9BE2980FAE
:1022D0009F73933018F485510C9452100C940B1189
:1022E000089590937D0180937C010895E0917C0195
:1022F000F0917D01309721F00190F081E02D09945B
:1023000080E00895E0917C01F0917D01309721F00B
:102310000280F381E02D09940895E0917C01F09111
:102320007D01309721F00480F581E02D0994089516
:1023300020917A0130917B012817390771F0909331
:102340007B0180937A01E0917C01F0917D013097CF
:1023500021F00680F781E02D0994089520917801FD
:10236000309179012817390771F0909379018093A2
:102370007801E0917C01F0917D01309721F000849B
:10238000F185E02D0994089508950C94C4110E94DC
:102390003B1E0E94DC0A0E94FD1E0C948E0EBF9212
:1023A000CF92DF92EF92FF920F931F93CF93DF9321
:1023B00000D000D00F92CDB7DEB70E94250B8FE77B
:1023C000C82E81E0D82E10E000E0E02E802F0E9481
:1023D000D20BB82EF601F1906F01F81609F45BC02C
:1023E00080911B0281FD0E94D80B30E020E0FB248D
:1023F0004F2D50E0922FBA01022E02C075956795BD
:102400000A94E2F760FF41C02983EA8221E030E0CC
:10241000790102C0EE0CFF1C9A95E2F72B2D30E0FB
:102420002E213F2181E0232B09F480E08B830E9441
:10243000441E8160782F9D838C8349815A816B81F2
:102440008D810E947112F801E158FE4F80818E2526
:1024500080830E94AA210E94761190917E018917A3
:1024600089F10E94761180937E010F900F900F905A
:102470000F900F90DF91CF911F910F91FF90EF90F0
:10248000DF90CF90BF900C947C082F5F3F4F283097
:10249000310509F0AFCF0F5F1F4F0930110509F06B
:1024A00094CF8FEF89838A831B820E94441E8160B0
:1024B000782F9D838C8349815A816B818D810E9405
:1024C0007112C7CF0F900F900F900F900F90DF9168
:1024D000CF911F910F91FF90EF90DF90CF90BF9021
:1024E0000895CF93DF93CDB7DEB72B970FB6F8944F
:1024F000DEBF0FBECDBF4F83588769877A878B8732
:102500001E8285E0FE013796DE01119601900D9244
:102510008A95E1F749815A816B817C818D819E8109
:102520002B960FB6F894DEBF0FBECDBFDF91CF91D3
:102530000C94E818882309F4D8C0823871F40E94FA
:10254000761181FDD2C089E30E948C1C0E94561D29
:1025500089E30E94C91C0C94561D833859F40E94CB
:10256000761180FDC2C083E50E948C1C0E94561D1E
:1025700083E5EFCF843859F40E94761182FDB5C00F
:1025800087E40E948C1C0E94561D87E4E2CF9CEFDA
:10259000980F913A18F40E948C1CDDCF90E2980FAE
:1025A000983050F4877091E001C0990F8A95EAF74E
:1025B000892F0E940D1DCFCF9BE5980F933070F4AB
:1025C000853A31F0863A39F083E890E00C9498111E
:1025D00081E890E0FBCF82E890E0F8CF98E5980F93
:1025E000953108F082C0883A09F440C0893A09F46C
:1025F00040C08A3A09F440C08B3A09F440C08C3A92
:1026000009F440C08B3B09F440C08C3B09F440C046
:102610008D3A09F440C0803B09F440C08E3A09F479
:1026200040C08F3A09F440C0813B09F440C0823B6E
:1026300009F440C0833B09F440C0843B09F440C026
:10264000853B09F440C0863B09F440C0873B09F450
:1026500040C0883B09F440C0893B09F440C08A3B34
:1026600009F440C090E080E00C94AE1182EE90E05E
:10267000FBCF89EE90E0F8CF8AEE90E0F5CF85EBC6
:1026800090E0F2CF86EB90E0EFCF83EB90E0ECCFE1
:1026900084EB90E0E9CF87EB90E0E6CF8CEC90E024
:1026A000E3CF8DEC90E0E0CF83E891E0DDCF8AE8E6
:1026B00091E0DACF82E991E0D7CF84E991E0D4CFFD
:1026C00081E292E0D1CF83E292E0CECF84E292E049
:1026D000CBCF85E292E0C8CF86E292E0C5CF87E219
:1026E00092E0C2CF8AE292E0BFCF0895882309F436
:1026F0004BC0823871F40E94761181FF45C089E396
:102700000E948C1C0E94561D89E30E94C91C0C94D7
:10271000561D833859F40E94761180FF35C083E539
:102720000E948C1C0E94561D83E5EFCF843859F41B
:102730000E94761182FF28C087E40E948C1C0E94B0
:10274000561D87E4E2CF9CEF980F913AF0F290E2A9
:10275000980F983050F4877091E001C0990F8A95D6
:10276000EAF7892F0E94131DD2CF9BE5980F933073
:1027700020F490E080E00C949811885A853120F480
:1027800090E080E00C94AE110895882321F00E941F
:102790000D1D0C94561D0895882321F00E94131DD1
:1027A0000C94561D08958F929F92AF92BF92DF9224
:1027B000EF92FF920F931F93CF93DF9300D000D03F
:1027C0000F92CDB7DEB77C016D837983FC01058163
:1027D00002950F70128111110E942C1D0E94851C00
:1027E000D82E882371F01123A1F08D81805E88306E
:1027F00080F082E00E946F1C0E94851C91E0D82E20
:10280000D926E981E295EF70F0E0EE5BF44D0C948F
:10281000D72AD12CF6CF09810F70F981F07F11F002
:102820000295007F1123B1F0002361F08D81805E5D
:10283000883018F02D81211109C0802F0E940D1DB4
:102840000E94561D8D810E949A1215C0802F0E94F1
:102850001E1DF6CF8D810E947613002361F08D81BD
:10286000805E883018F03D81311129C0802F0E9490
:10287000131D0E94561DDD2009F4D3C10E94621C65
:1028800080FDCFC1F70112820E945C1C0E94A61A33
:10289000C7010E9422160E945C1C0F900F900F909F
:1028A0000F900F90DF91CF911F910F91FF90EF90BC
:1028B000DF90BF90AF909F908F900C94C81A802F9C
:1028C0000E94241DD6CF49814F70B42E5981507F6C
:1028D000503219F0B29480EFB8228D81882369F0CC
:1028E000813029F1112369F1002359F0F701858125
:1028F00080FFA8CF8F70858304C0112361F0011180
:1029000004C08B2D0E94C513B6CF8B2D0130D1F79B
:102910000E94401DB0CF011106C00E94431D8B2DA7
:102920000E94CC13A8CF013009F4A5CFF6CF112314
:1029300021F0063008F09FCFE4CF053008F09BCFA0
:10294000EECF002361F38D810E94761394CF8981AD
:1029500086958695837069F0813009F08CCF8D81E2
:1029600099819370111102C090E080E00E94AE1135
:1029700082CF8D8199819370111102C090E080E027
:102980000E94981178CF8D81112329F00E94B820E0
:102990000E949F2170CF0E942021FACF89818370ED
:1029A00009F05FC0111167CF2D8122952695277000
:1029B000220F220F8D818F7090E0B0E0A0E04C01DB
:1029C0005D01022E04C0880C991CAA1CBB1C0A9431
:1029D000D2F7FD8160E070E0CB01F4FF0FC06FE043
:1029E00070E080E090E004C0660F771F881F991F99
:1029F0002A95D2F7609570958095909529812695B6
:102A0000269523702D832230B1F0233019F19B01DC
:102A1000AC01282939294A295B2929833A834B8328
:102A20005C833D8169817A818B819C813130B1F0F9
:102A30000E94331A20CF9B01AC01282939294A2949
:102A40005B2929833A834B835C83CA01B9010E94C5
:102A50005D1A11CF0E94331AC501B4010E94091AF0
:102A60000ACF8695112311F089818170882309F49A
:102A700002CF2D81229526952770220F220F8D815E
:102A80008F7090E0B0E0A0E04C015D01022E04C028
:102A9000880C991CAA1CBB1C0A94D2F73D8160E0EB
:102AA00070E0CB0134FF0FC06FE070E080E090E099
:102AB00004C0660F771F881F991F2A95D2F760956B
:102AC00070958095909549814695469543704D83C4
:102AD0004230B1F0433019F19B01AC01282939296A
:102AE0004A295B2929833A834B835C833D81698131
:102AF0007A818B819C813130B1F00E94391BBBCE31
:102B00009B01AC01282939294A295B2929833A8369
:102B10004B835C83CA01B9010E94631BACCE0E9447
:102B2000391BC501B4010E940F1BA5CE3D81323F68
:102B300009F447C080F4303F79F1313FD9F1832F58
:102B4000805E8031D0F0112309F456C001117ACE95
:102B500089818F7133C04D81433FD1F1443F99F753
:102B6000112309F43FC089818F7189830E94A61ABD
:102B700063E089810E94661C7ECE5D815F705D830B
:102B800089818F71112321F00E94A61A8D81BACEFE
:102B90000E94C81A8D81C4CE112341F0053008F07F
:102BA0006ACE89818F710E94ED1A65CE063008F0D9
:102BB00062CEF7CF89818F71112339F00E94A61A56
:102BC0005ACE89818F711123C9F30E94C81A53CE3E
:102BD000112329F089818F710E94911A4CCE0E9495
:102BE000871A49CE81E00E946F1C023008F443CE60
:102BF00082E00E946F1C3FCE0111A5CE89818F71AA
:102C0000E4CF49814F706D81C7010E94FB060E948D
:102C1000821931CE49814F706D81C7010E947E08B3
:102C20002ACE0F900F900F900F900F90DF91CF91C1
:102C30001F910F91FF90EF90DF90BF90AF909F900A
:102C40008F9008950F931F93CF93DF93EC018B81A7
:102C50009C81892B29F08881998189238F3F29F4D0
:102C6000DF91CF911F910F910895CE010E9414071B
:102C70008823B1F3688179818A810E94321C8C019A
:102C80000E948D1B0E94FE19B801CE01DF91CF91E9
:102C90001F910F910C94D3130E942C1D0E943D1D77
:102CA0000E94FF1C0E94561D0E9490220E949F219C
:102CB00090E080E00E94981190E080E00C94AE11CA
:102CC0000E941B1D0C944C160E94261C282F892F35
:102CD00082958F70903C80F48A30B0F4843020F478
:102CE000823090F480E008958630E1F781E0203E64
:102CF00088F0213FB9F70EC08C3011F08F3091F77A
:102D000093FB882780F9089581E0203F39F018F47B
:102D1000203E40F70895243F29F7FCCF0895CF9334
:102D2000DF9300D000D00F92CDB7DEB70F900F9099
:102D30000F900F900F90DF91CF910895CF93DF9375
:102D400000D000D000D0CDB7DEB726960FB6F894ED
:102D5000DEBF0FBECDBFDF91CF9108951F93CF93FC
:102D6000DF93E091890116E080918A018E1304C0FF
:102D7000DF91CF911F910895CE2FD0E01E9FF001DB
:102D80001124E557FE4F4081518162817381848116
:102D900095810E949E16FE013196E770E5CF409125
:102DA000BB015091BC016091BD017091BE01809149
:102DB000BF019091C0010C949E161F93CF93DF9397
:102DC0008091C001807FC1F48091BD018823A1F072
:102DD00080918901C0918A016091BB017091BC0111
:102DE0004091BE015091BF01D62FD723DA01A095A3
:102DF000B09516E0C81304C0DF91CF911F910895DC
:102E000090E04115510511F0DF3F31F401968770D4
:102E1000F1CF2A0F3B1F17C0189FF001199FF00D2B
:102E20001124E557FE4F21812713F0CF208126136F
:102E3000EDCF22812111EACF238134812417350778
:102E400040F3241B350B283C310500F72091C001CD
:102E50002F7020612093C00126E0289FF001299F58
:102E6000F00D1124E057FE4F80818F7080618083C8
:102E70008BEB91E00E942216DF91CF911F910C9471
:102E8000AE169F92AF92BF92CF92DF92EF92FF92D7
:102E90000F931F93CF93DF93CDB7DEB72B970FB66A
:102EA000F894DEBF0FBECDBF8C0185E0F801DE01D6
:102EB000179601900D928A95E1F7D8014C911196E1
:102EC0005C9111971296EC9012978091BE019091AF
:102ED000BF01009709F46BC12091BB013091BC0187
:102EE000632F62236F3F09F462C11396CD90DC908B
:102EF0009090BD01992009F4F8C0C816D90608F4CD
:102F00003FC0F601E81BF90BCF01FF24F394883C86
:102F1000910508F0F12C8BEBA82E81E0B82E809162
:102F2000C001982F907FFF2009F4B7C0911180C095
:102F3000FE2C35132AC0241328C0E11026C08F7040
:102F400080618093C0010E94CF16C5010E942216A5
:102F50008091C001D80115968C938F2D2B960FB6BA
:102F6000F894DEBF0FBECDBFDF91CF911F910F91BF
:102F7000FF90EF90DF90CF90BF90AF909F9008951B
:102F8000809590958C0D9D1DC0CFCD2829F0842F64
:102F900085238F3F09F019C180E0B82FB170DB2E77
:102FA000E091890120918A0136E080FD1CC0EE206D
:102FB000A1F28091C00181608093C001F12CCDCF3E
:102FC0008E2F90E03E9FF0011124E557FE4F618166
:102FD000651306C06081641303C062816E11E7CF80
:102FE000FC013196E770E213EBCF4F8358878F8156
:102FF00098850E94261C292F22952F70903260F010
:10300000225F2F70223078F49F7051F0F801958183
:10301000907F31F4D12C0AC09F7011F08823D1F336
:10302000805E8830B8F3C8010E942216FD2C95CF2F
:10303000351306C0241304C0D801EE2009F47BC068
:103040004F8358878F8198850E946416882309F4DE
:10305000B8C0EE2009F4B5C08091C001803270F094
:103060002091BB013091BC013A8329831B82DD8210
:10307000CC828E83CE0101960E94221686E0F80152
:10308000ABEBB1E001900D928A95E1F70E94DD165D
:103090000E94CF16FF24F39460CF911113C07C2DB2
:1030A000DB86CA866E2D8B850E948F168BEB91E096
:1030B0000E94221686E0F50111928A95E9F70E9496
:1030C000CF164BCF3513BCCF2413BACFE110B8CFF6
:1030D000D80115968C93C8010E94221686E0F5014E
:1030E00011928A95E9F7F92C38CFC816D90688F1DC
:1030F000B601681B790BCB01F12C883C910508F0D7
:1031000047C0FE2CEE2009F45CC0351330C02413F8
:103110002EC08091C00180FD21C0982F907FF1F0DA
:10312000D80115968C931597903F39F0982F907F82
:10313000905F8F70892B15968C93C8010E94221680
:1031400086E0F801ABEBB1E001900D928A95E1F7D2
:10315000B6CF809590958C0D9D1DCECF86E0F80161
:10316000ABEBB1E001900D928A95E1F7F6CE4F837B
:1031700058878F8198850E94641681117FCF809136
:10318000C00181608093C001C8010E942216E5CE73
:103190007C2DDB86CA866E2D8B850E948F1686E07D
:1031A000EBEBF1E0DF011D928A95E9F788CFEE2085
:1031B00041F04F8358878F8198850E946416811152
:1031C0005DCFC8010E94221665CF81E08E25E5CE35
:1031D0001F93CF93DF93CDB7DEB72C970FB6F8943C
:1031E000DEBF0FBECDBF4F83588769877A878B8735
:1031F0009C87CE0107960E944117882369F08A8533
:103200009B85892B39F04F815885842F85238F3FEB
:1032100009F071C016E05FC086E0FE013796DE015E
:10322000119601900D928A95E1F78A859B85892BED
:1032300089F388859F8189238F3F61F320918A01DB
:1032400030E0C9010196877099274091890148179C
:10325000190671F40E94601610928A011092890179
:1032600086E0EBEBF1E0DF011D928A95E9F7D2CF22
:1032700096E0929FD001939FB00D1124A557BE4FA9
:10328000FE01319601900D929A95E1F780938A01A3
:103290000E94AE16BFCF819FC001112485579E4F5B
:1032A0000E9441178823E9F0E09189011E9FF001F7
:1032B0001124E557FE4F40815181628173818481E1
:1032C00095810E949E168091890190E001968770F9
:1032D0009927809389018091890190918A018913AE
:1032E000DACF2C960FB6F894DEBF0FBECDBFDF91BC
:1032F000CF911F91089569857A858B859C850E9461
:103300009E1688CFEF92FF920F931F93CF93DF9378
:103310008C01892B89F0F12CEE24E394E8012196AD
:10332000F8018491843709F457C0A0F4823009F47D
:103330003EC048F48130D1F0DF91CF911F910F91C1
:10334000FF90EF9008959CEF980F9037A8F70E9498
:103350009A120AC0853709F44CC09CE7980F903741
:1033600058F78F770E9476138E0116C00E5F1F4F9D
:10337000FE01849190E2980F983060F48770FE2DE2
:1033800001C0FF0F8A95EAF78F2F0E942F1D0E9420
:10339000561D02C00E949A128F2D815008F4BECF94
:1033A000EFE9FFE03197F1F700C00000F6CF0E5FC4
:1033B0001F4FFE01849190E2980F983050F487706F
:1033C000FE2D01C0FF0F8A95EAF78F2F0E94351D51
:1033D000DECF0E947613E0CF0E5F1F4FFE01C49137
:1033E000C150D0F28FE99FE00197F1F700C00000D3
:1033F000F7CF0E5F1F4FFE01F490CECF089560937C
:10340000F2017093F3018093F4019093F5010C9411
:103410004C16CF93DF9300D000D0CDB7DEB76983D1
:103420007A838B839C838091F2019091F301A09128
:10343000F401B091F50129813A814B815C81822BA5
:10344000932BA42BB52B8093F2019093F301A093BF
:10345000F401B093F5010F900F900F900F90DF9152
:10346000CF910C944C16CF93DF9300D000D0CDB702
:10347000DEB769837A838B839C838091F20190917C
:10348000F301A091F401B091F50129813A814B81BA
:103490005C8182239323A423B5238093F20190932C
:1034A000F301A093F401B093F5010F900F900F90EA
:1034B0000F90DF91CF910C944C16CF93DF9300D0F7
:1034C00000D0CDB7DEB769837A838B839C838091EC
:1034D000F2019091F301A091F401B091F5012981DD
:1034E0003A814B815C8182279327A427B52780935B
:1034F000F2019093F301A093F401B093F5010F90C2
:103500000F900F900F90DF91CF910C944C1610926A
:10351000EE011092EF011092F0011092F1010C9463
:103520004C1641E050E060E070E004C0440F551FCD
:10353000661F771F8A95D2F74093EE015093EF01F3
:103540006093F0017093F1010C944C16282F81E0E8
:1035500090E0A0E0B0E004C0880F991FAA1FBB1F35
:103560002A95D2F74091EE015091EF016091F00160
:103570007091F101842B952BA62BB72B8093EE0134
:103580009093EF01A093F001B093F1010C944C16CD
:1035900041E050E060E070E004C0440F551F661F3A
:1035A000771F8A95D2F740955095609570958091D8
:1035B000EE019091EF01A091F001B091F10184230F
:1035C0009523A623B7238093EE019093EF01A09358
:1035D000F001B093F1010C944C16282F81E090E09B
:1035E000A0E0B0E004C0880F991FAA1FBB1F2A9556
:1035F000D2F74091EE015091EF016091F00170918E
:10360000F10184279527A627B7278093EE01909391
:10361000EF01A093F001B093F1010C944C16CF93FD
:10362000DF9300D000D0CDB7DEB769837A838B8378
:103630009C838091EE019091EF01A091F001B091F7
:10364000F10129813A814B815C81822B932BA42B40
:10365000B52B8093EE019093EF01A093F001B0930E
:10366000F1010F900F900F900F90DF91CF910C947C
:103670004C16CF93DF9300D000D0CDB7DEB769836F
:103680007A838B839C838091EE019091EF01A091CE
:10369000F001B091F10129813A814B815C81822353
:1036A0009323A423B5238093EE019093EF01A0937D
:1036B000F001B093F1010F900F900F900F90DF91F8
:1036C000CF910C944C16CF93DF9300D000D0CDB7A0
:1036D000DEB769837A838B839C838091EE0190911E
:1036E000EF01A091F001B091F10129813A814B8164
:1036F0005C8182279327A427B5278093EE019093BE
:10370000EF01A093F001B093F1010F900F900F9093
:103710000F90DF91CF910C944C160895990F990F4B
:10372000990FE92FE80F877041E001C0440F8A9597
:10373000EAF7E695E695E69585E0E89FF001112425
:10374000EF53FE4F30E020E070E05191DF01119720
:10375000CB01022E02C0969587950A94E2F78170FC
:1037600081958527842385278C932F5F3F4F2530B4
:10377000310559F70895E92FEE0FEE0FEE0FE80F20
:10378000982F9770E695E695E69585E0E89FF0011D
:103790001124EF53FE4F50E040E080E0219130E0F3
:1037A000092E02C0369527950A94E2F72170332737
:1037B000042E01C0220F0A94EAF7822B4F5F5F4F5D
:1037C0004530510559F70895BF92CF92DF92EF929D
:1037D000FF920F931F93CF93DF938C01C090EE0164
:1037E000D090EF01E090F001F090F1018091F201B2
:1037F0009091F301A091F401B091F501C82AD92A62
:10380000EA2AFB2ACFE1D0E0BC2ED701C6010C2E5C
:1038100004C0B695A795979587950A94D2F780FD31
:103820000EC0219788F7B12C8B2DDF91CF911F917E
:103830000F91FF90EF90DF90CF90BF900895B80167
:103840008C2F0E949C08019761F3EECFCF93DF93FA
:10385000D82FC92F0E94E41B6D2F7C2FDF91CF91B1
:103860000C949C081F93CF93DF93162FD72F909122
:103870008801992339F0862F972FDF91CF911F91DF
:103880000C94261C882391F0862F972F0E94E41B0E
:10389000C82F682F812F9D2F0E948E1B612F7D2F97
:1038A0008C2FDF91CF911F910C949C08862F972F1E
:1038B0000E94BB1BC82FF2CF8091F601859585959C
:1038C000859508958091F6018770089598E0899F05
:1038D00090011124622B6093F6010C94A61A90912A
:1038E000F601809589238093F601282F277061F4D3
:1038F000282F082E000C330B9217130629F08595FC
:10390000859585950C94C81A08959091F601977045
:1039100081E009F480E00895909113019923E1F08A
:103920009091900297FF18C0E82FE695E695E695EE
:10393000EF3139F12091010130910201E20FF32FB3
:10394000F11D877021E030E001C0220F8A95EAF76F
:103950008181822B818308952091010130910201A0
:10396000F90132969FEF40E05191851751F09F3F4A
:1039700019F4511101C0942F4F5F4E31A9F79F3FA9
:1039800009F40895290F311D97FD3A95F9018283B5
:10399000089590911301992301F19091900297FF5E
:1039A0001CC0E82FE695E695E695EF3139F12091B8
:1039B000010130910201E20FF32FF11D877021E028
:1039C00030E0A90102C0440F551F8A95E2F7CA01F1
:1039D00080959181892381830895209101013091FF
:1039E0000201F9013296205E3F4F9191891303C085
:1039F000DF0111971C92E217F307B9F7089581E0F0
:103A000090E0E0910101F0910201E80FF91F1082AE
:103A1000019680329105A9F7089590911A02982B8A
:103A200090931A020895982F909580911A028923F5
:103A300080931A02089510921A0208959091190223
:103A4000982B909319020895982F909580911902C0
:103A50008923809319020895109219020895909174
:103A60001802982B909318020895982F90958091A2
:103A7000180289238093180208951092180208955D
:103A80008093F70108951092F701089520910101A4
:103A900030910201F9013196205E3F4F80E0919113
:103AA00091118F5FE217F307D1F70895E0910101BB
:103AB000F091020180911A028083E0910101F0915E
:103AC0000201808190911902892B8083E09101018C
:103AD000F0910201808190911802892B808390914E
:103AE000F701992361F0E0910101F09102018081D9
:103AF000892B80830E94461D81111092F7018091CD
:103B00000101909102010C9482116DEE7EEF90E024
:103B100080E00E940F2B60E082E090E00E94F12A9A
:103B200060E083E090E00E94F12A60E084E090E0B1
:103B30000E94F12A60E085E090E00E94F12A40E0D6
:103B400050E0BA0188E090E00C94032B90E080E014
:103B50000E94EB2A9C0181E02D3E3E4F09F080E05F
:103B6000089582E090E00C94DD2A682F82E090E0D6
:103B70000C94F12A83E090E00C94DD2A682F83E016
:103B800090E00C94F12A84E090E00C94DD2A682FF8
:103B900084E090E00C94F12A80919602843039F10F
:103BA00010921C0288E190E020E40FB6F894A895EA
:103BB000809360000FBE2093600080E00E947C082C
:103BC00083B7817F846083BF83B7816083BF78942C
:103BD000889583B78E7F83BF0FB6F894A8958091A0
:103BE0006000886180936000109260000FBE0895AD
:103BF00008950895CF930E94F81D0E94250B0E94FE
:103C0000F91DC0E08C2F0E94D20B811105C0CF5F3F
:103C1000C930C1F7CF91089581E0FCCF0E946016B2
:103C20000E9476110C947C081F921FB61F921124DB
:103C30008F939F93AF93BF9380911C02811113C008
:103C400080918C0290918D02A0918E02B0918F0292
:103C50004196A11DB11D80938C0290938D02A0937B
:103C60008E02B0938F02BF91AF919F918F911F9061
:103C70001FBE1F90189582E084BD93E095BD9AEF1A
:103C800097BD80936E0008952FB7F89480918C02B1
:103C900090918D02A0918E02B0918F022FBF089556
:103CA000CF92DF92EF92FF929C014FB7F8948091F0
:103CB0008C0290918D02A0918E02B0918F024FBF25
:103CC0006C017D01EE24FF24A90170E060E0C416C0
:103CD000D506E606F70638F0821B930BFF90EF90AF
:103CE000DF90CF9008950197F7CF1F921FB61F92D4
:103CF00011248F939F93AF93BF9380918C029091E7
:103D00008D02A0918E02B0918F020196A11DB11D6E
:103D100080938C0290938D02A0938E02B0938F02B9
:103D2000BF91AF919F918F911F901FBE1F901895CB
:103D30000E948626F8942FEF87EA91E62150804072
:103D40009040E1F700C0000087E090EBDC01809339
:103D50009F029093A002A093A102B093A20288E1D7
:103D60009CE00FB6F894A895809360000FBE9093E6
:103D70006000FFCFCF92DF92EF92FF920F931F93DD
:103D8000CF93C0E0E82EF12C8C2F0E94D20B10E0D4
:103D900000E0C82ED12CC601002E02C09595879553
:103DA0000A94E2F780FF11C0602F7C2F80E00E9410
:103DB0007F08E816F90649F481E0CF911F910F9131
:103DC000FF90EF90DF90CF9008950F5F1F4F083066
:103DD000110509F7CF5FC930B9F680E0EECFCF9378
:103DE000C82F8CE20E94BA1E882321F08C2FCF911D
:103DF0000C94BA1E80E0CF910895CF93DF9300D04A
:103E000000D0CDB7DEB70E94A61D811102C00E946E
:103E1000851D95E6998308C00E94250B8FE39CE9D8
:103E20000197F1F700C00000A981A150A983A11159
:103E3000F3CF89E20E94EF1E811110C18AE20E9435
:103E4000EF1E81110E94851D85E00E94EF1E8111E9
:103E50000E94981E0E94B11D80931B0287E00E9461
:103E6000EF1E882371F08BE10E94EF1E882309F476
:103E7000D1C090911B02892F8D7F91FF826080932A
:103E80001B0280911B020E94B51D0E94C31D90E081
:103E9000909391028093900280EE0E94EF1E8823FF
:103EA00041F090919002892F8E7F90FF81608093E6
:103EB000900289E30E94EF1E882341F090919002C6
:103EC000892F8D7F91FF82608093900282EE0E9405
:103ED000EF1E882341F090919002892F8B7F92FFF3
:103EE00084608093900286EE0E94EF1E882341F04A
:103EF00090919002892F877F93FF88608093900232
:103F000083EE0E94EF1E882341F090919002892F4A
:103F10008F7E94FF80618093900285E30E94EF1E64
:103F2000882341F090919002892F8F7D95FF8062C8
:103F30008093900281E30E94EF1E882341F09091CC
:103F40009002892F8F7B96FF80648093900281E19D
:103F50000E94EF1E882341F090919002892F97FBD9
:103F600087F9805880939002809190020E94C71D2B
:103F700087E20E94EF1E89838EE10E94EF1E882354
:103F800019F0B981B260B9838FE10E94EF1E8823D6
:103F900019F029812460298380E20E94EF1E882382
:103FA00019F039813860398381E20E94EF1E88233D
:103FB00019F049814061498382E20E94EF1E882303
:103FC00019F059815062598383E20E94EF1E8823C1
:103FD00019F089818064898384E20E94EF1E88231E
:103FE000B1F199819068998389810E94BE1D3981C0
:103FF000232F30E050E040E029833A834B835C83F9
:10400000CA01B9010F900F900F900F90DF91CF91DF
:104010000C94FF198EE00E94EF1E882339F09091D6
:104020001B02892F8B7F92FF846029CF80E10E9441
:10403000EF1E90911B02882329F0892F877F93FF21
:1040400088601DCF892F8E7F90FF816018CFA98156
:10405000A111CACF0E94BA1D282FCBCF0F900F906D
:104060000F900F90DF91CF91089580911F0280FFF4
:1040700012C06091060185E0689FB001112475951A
:1040800067957595679560387105A8F56115710597
:10409000A1F1862F089581FF09C06091060185E096
:1040A000689FB001112475956795EDCF6091060169
:1040B00082FD0AC0809120028823D1F090910501F1
:1040C00060910601891728F085E0689FB0011124EE
:1040D000DACF869FB001112485E0869F9001879FEB
:1040E000300D1124692F70E0C9010E94C32ACBCF83
:1040F00065E070E0CECF8FE7089581E0089580916C
:104100001F0280FF0CC06091040170E075956795F7
:10411000759567956115710549F1862F089581FFA1
:1041200006C06091040170E075956795F3CF6091CA
:10413000040182FD0BC0909120029923A1F06091AF
:10414000030180910401961738F0682F70E0603801
:10415000710500F38FE70895899FC001112470E075
:104160000E94C32AF4CF61E070E0D7CF81E00895C8
:10417000803F31F40E943520819580932302089579
:10418000813F19F40E943520F8CF823F31F40E941C
:1041900035208195809322020895833F19F40E946F
:1041A0003520F8CF893F29F40E947F208093240294
:1041B00008958A3F21F40E947F208195F7CF8B3F9D
:1041C00031F40E947F2081958093250208958C3FD1
:1041D00019F40E947F20F8CF843F31F480912102AE
:1041E0008160809321020895853F21F4809121020E
:1041F0008260F7CF863F21F4809121028460F1CF65
:10420000873F21F4809121028860EBCF883F21F421
:10421000809121028061E5CF8D3F31F480911F02B2
:10422000816080931F0208958E3F21F480911F02C8
:104230008260F7CF8F3FB9F780911F028460F1CF82
:1042400090912202803F41F48091230287FD1092D9
:104250002302992371F00895813F29F4809123026C
:104260001816ACF3F6CF823F81F497FFF2CF10928D
:1042700022028091230290912402892B90912502A1
:10428000892B49F7109220020895833F19F41916DB
:1042900074F3DFCF893F39F4809124021816CCF6ED
:1042A00010922402D6CF8A3F29F48091240287FFFE
:1042B000D0CFF6CF8B3F39F48091250287FFC9CF4D
:1042C00010922502C6CF8C3F29F480912502181642
:1042D000BCF3BFCF843F31F4809121028E7F809365
:1042E0002102B7CF853F21F4809121028D7FF7CF46
:1042F000863F21F4809121028B7FF1CF873F21F40B
:1043000080912102877FEBCF883F21F480912102A9
:104310008F7EE5CF8D3F31F480911F028E7F809399
:104320001F0297CF8E3F21F480911F028D7FF7CF20
:104330008F3F09F08ECF80911F028B7FF0CF81E2FB
:1043400092E00E948D110E94441E90931E02809361
:104350001D0208951F93CF93DF9300D000D000D0AB
:10436000CDB7DEB780911D0290911E020E94501EB3
:10437000AC01809120022091070130E0811106C03C
:10438000209108019AE0299F9001112442175307B8
:1043900088F020912202A0912302A9831091240287
:1043A000B0912502BE8321110FC09A2F912B9B2B18
:1043B00009F0B2C026960FB6F894DEBF0FBECDBF8F
:1043C000DF91CF911F9108958F3F19F08F5F8093F8
:1043D0002002121624F40E9435208093220280913C
:1043E000220287FF05C00E9435208195809322021A
:1043F0002981121624F40E94352080932302809193
:10440000230287FF05C00E943520819580932302F7
:1044100080912202882309F455C0309123023D8304
:10442000332309F44FC0282F880F330B440B550B4F
:1044300029833A834B835C83CA01B9010E94B62960
:1044400023E333E343E35FE369837A838B839C83D2
:1044500069817A818B819C810E941A2A69837A837F
:104460008B839C8369817A818B819C810E947E29C8
:10447000609322028D81082E000C990BAA0BBB0BB6
:1044800089839A83AB83BC83BC01CD010E94B6298A
:1044900023E333E343E35FE369837A838B839C8382
:1044A00069817A818B819C810E941A2A69837A832F
:1044B0008B839C8369817A818B819C810E947E2978
:1044C00060932302111624F40E947F20809324021B
:1044D0008091240287FF05C00E947F2081958093F0
:1044E00024029E81191624F40E947F2080932502C5
:1044F0008091250287FF05C00E947F2081958093CF
:10450000250226960FB6F894DEBF0FBECDBFDF9111
:10451000CF911F910C949F218F3F09F057CF68CF07
:1045200085E0E1E2F2E0DF011D928A95E9F7109261
:10453000200210921F020895809146020895CF93A1
:10454000DF9300D00F92CDB7DEB7209196022430D2
:1045500019F523E029838A839B832093E9008FEF59
:104560009091E800815095FD06C095ED9A95F1F780
:1045700000008111F5CF8091E80085FF0DC050E06B
:1045800040E063E070E0CE0101960E94FE2480913D
:10459000E8008E778093E8000F900F900F90DF91E6
:1045A000CF910895CF93DF9300D00F92CDB7DEB7B0
:1045B0009C0180919602843031F582E089832058F5
:1045C00031093B832A8383E08093E9008FEF909148
:1045D000E800815095FD06C095ED9A95F1F7000031
:1045E0008111F5CF8091E80085FF0DC050E040E0DB
:1045F00063E070E0CE0101960E94FE248091E80005
:104600008E778093E8000F900F900F90DF91CF91FD
:104610000895209196022430F1F422E02093E900DD
:104620002FEF3091E800215035FD06C035ED3A9569
:10463000F1F700002111F5CF2091E80025FF0BC014
:1046400050E040E065E070E00E94FE248091E800C8
:104650008E778093E8000895CF93DF93D82FC92FEA
:10466000809196028430F1F4909113019923E9F03E
:104670009091900297FF19C08093E9008FEF90917D
:10468000E800815095FD06C095E19A95F1F700008C
:104690008111F5CF8091E80050E040E060E270E0E9
:1046A00085FD1AC0DF91CF91089581E08093E900E4
:1046B0008FEF9091E800815095FD06C095ED9A9599
:1046C000F1F700008111F5CF8091E80085FFEACF76
:1046D00050E040E068E070E08D2F9C2F0E94FE24A7
:1046E0008091E8008E778093E80080E2ED2FFC2F28
:1046F000A6E2B2E001900D928A95E1F7D3CF8091C6
:104700009502811109C00E9486260E94E3268091AD
:10471000E20084608093E20008951092950208956B
:10472000089508950C940E1E42E061EC81E00E9411
:10473000022642E061EC82E00E94022642E061EC47
:1047400083E00E94022642E261EC84E00C9402269F
:1047500080919802893089F148F4823009F494C03C
:10476000833009F44FC0813041F008958A3009F454
:104770007BC08B3009F461C0089580919702813A23
:1047800009F03FC08091E800877F8093E800809126
:104790009B0290919C02892B61F460E286E292E098
:1047A00070E00E944D258091E8008B778093E800AF
:1047B000089560E090E080E0F3CF8091970281322D
:1047C00001F580919B0290919C02009711F0039754
:1047D000C1F48091E800877F8093E8008091E80031
:1047E00082FF0BC08091F100809346028091E80027
:1047F0008B778093E8000C94362680919602811185
:10480000EDCF089580919702813AD9F780919B026C
:1048100090919C02892BA9F78091E800877F809373
:10482000E8008091E80080FFFCCF80911301809325
:10483000F1008091E8008E77DCCF80919702813281
:1048400001F780919B0290919C02892BD1F6809177
:10485000E800877F8093E8000E94362680919902C5
:10486000809313010C94601680919702813249F66F
:104870008091E800877F8093E8000E94362680912F
:104880009A0280934702089580919702813A09F035
:10489000B8CF8091E800877F8093E8008091E8009E
:1048A00080FFFCCF80914702C2CF84B7877F84BF4F
:1048B0000FB6F894A895809160008861809360009D
:1048C000109260000FBE80E880936100109261003A
:1048D0000E94C5110E9486260E94E3268091E20074
:1048E00084608093E20078940E9463290E94C7113B
:1048F00089E091E00E94711180919602853029F043
:104900000E94CF110E943E11F7CF0E94CC1D8091D2
:104910009402882389F30E94FA1D882369F30E9478
:10492000E824EACF9C01DA01892F99278330910589
:10493000C1F068F48130910509F445C0029761F433
:104940008DE690E029EE3BE02D933C930895813273
:104950009105E1F0829739F190E080E030E020E0CD
:10496000F3CFC9019927213059F08230910559F0D0
:10497000E5EEFBE0892B81F7849190E09F01E4CF85
:10498000EDECFBE0F9CFE9EBFBE0F6CF643020F78C
:10499000E62FF0E0EE0FFF1FEF5CFE4F208131812C
:1049A00089E090E0D1CF6430B8F670E0FB01EE0F03
:1049B000FF1FE75DFE4F208131816B5D7E4FFB0164
:1049C000808190E0C1CF82E190E026E53CE0BCCF61
:1049D00080E189BD82E189BD09B400FEFDCF8091EF
:1049E000D8008F7D8093D8008091E0008260809312
:1049F000E0008091E00081FDFCCF0895AF92BF926E
:104A0000CF92DF92FF920F931F93CF93DF936C01AE
:104A1000EB018A010E945526F82E811123C0011551
:104A2000110539F0F80180819181C81BD90BC80E9E
:104A3000D91EB12CA12C2097A9F08091E80085FD0A
:104A400022C08091E8008E778093E800011511055F
:104A5000A1F0F80180819181A80EB91EB182A082D7
:104A600085E0F82E8F2DDF91CF911F910F91FF9050
:104A7000DF90CF90BF90AF9008950E945526882375
:104A8000D1F2F82EEFCFF60181916F018093F10002
:104A90002197FFEFAF1ABF0ACECFFC01CB012091C7
:104AA0009D0230919E022617370790F0009729F457
:104AB0002091E8002E772093E80040E0009751F421
:104AC000411108C08091E80082FF31C080E0089564
:104AD000C901F3CF209196022223A9F12530A9F133
:104AE0002091E80023FD2DC02091E80022FDEACFAF
:104AF0002091E80020FFE2CF3091F3002091F200F6
:104B0000009719F02830310558F041E02830310580
:104B100009F040E02091E8002E772093E800CECF06
:104B200041914093F10001972F5F3F4FE9CF809172
:104B30009602882341F0853041F08091E80083FFA0
:104B4000C1CF81E0089582E0089583E00895FC01DB
:104B5000CB0120919D0230919E022617370790F0DD
:104B6000009729F42091E8002E772093E80040E098
:104B7000009751F4411108C08091E80082FF32C0D3
:104B800080E00895C901F3CF209196022223B1F16C
:104B90002530B1F12091E80023FD2EC02091E800DE
:104BA00022FDEACF2091E80020FFE2CF3091F30010
:104BB0002091F200009719F02830310558F041E0BB
:104BC0002830310509F040E02091E8002E7720934D
:104BD000E800CECF44914093F100319601972F5FCA
:104BE0003F4FE8CF80919602882341F0853041F015
:104BF0008091E80083FFC0CF81E0089582E00895AE
:104C000083E00895982F973028F08F708093E90003
:104C100081E008959093E900242F762F50E09817B3
:104C200031F07091EC002091ED005091F00021FDE9
:104C300002C09F5FE8CF3091EB003E7F3093EB00E6
:104C40003091ED003D7F3093ED003091EB0031600D
:104C50003093EB007093EC002093ED005093F00044
:104C60002091EE0027FDE5CF80E008958091970226
:104C700087FF13C08091E80082FF06C08091E800A2
:104C80008B778093E80004C0809196028111F2CF67
:104C90000895809196028823D9F38091E80080FFDF
:104CA000F8CF8091E8008E77ECCF2091E40030912E
:104CB000E50095E6A9012091EC00822F817020FF8C
:104CC00006C08091E80080FF06C080E00895209132
:104CD000E80022FD1AC080919602882389F0853071
:104CE00089F08091EB0085FD0FC02091E4003091A8
:104CF000E50042175307F9F29150E1F684E0089578
:104D000082E0089583E0089581E008950E94F426EA
:104D10000E94FC26E0EEF0E0808181608083E8ED77
:104D2000F0E080818F77808319BCA7EDB0E08C9193
:104D30008E7F8C9380818F7E808310929502089560
:104D40000F931F93CF93DF930E94F4260E94FC26BB
:104D5000C8EDD0E088818F778883888180688883D8
:104D600088818F7D888319BC1092960210929202DE
:104D7000109294021092930200EE10E0F8018081EC
:104D80008B7F808388818160888342E060E080E05F
:104D90000E940226E1EEF0E080818E7F8083E2EEC9
:104DA000F0E0808181608083808188608083F80169
:104DB00080818E7F8083888180618883DF91CF911D
:104DC0001F910F910895E8EDF0E080818F7E808340
:104DD000E7EDF0E080818160808384E082BF81E044
:104DE000809395020C94A026E8EDF0E080818E7F00
:104DF00080831092E20008951092DA001092E10090
:104E000008951F920F920FB60F9211242F933F9384
:104E10004F935F936F937F938F939F93AF93BF93C2
:104E2000EF93FF938091E10082FF0BC08091E2003D
:104E300082FF07C08091E1008B7F8093E1000E9498
:104E400062298091DA0080FF19C08091D80080FF2C
:104E500015C08091DA008E7F8093DA008091D900AE
:104E600080FF94C080E189BD82E189BD09B400FE64
:104E7000FDCF81E0809396020E947F238091E10024
:104E800080FF19C08091E20080FF15C08091E20090
:104E90008E7F8093E2008091E20080618093E20047
:104EA0008091D80080628093D80019BC85E08093FF
:104EB00096020E9491238091E10084FF29C0809195
:104EC000E20084FF25C080E189BD82E189BD09B48B
:104ED00000FEFDCF8091D8008F7D8093D800809117
:104EE000E1008F7E8093E1008091E2008F7E8093CD
:104EF000E2008091E20081608093E2008091920262
:104F0000882309F449C084E0809396020E9492238A
:104F10008091E10083FF29C08091E20083FF25C0DA
:104F20008091E100877F8093E10082E08093960288
:104F3000109292028091E1008E7F8093E100809137
:104F4000E2008E7F8093E2008091E2008061809396
:104F5000E20042E060E080E00E9402268091F000E2
:104F600088608093F0000E949023FF91EF91BF91A1
:104F7000AF919F918F917F916F915F914F913F91F1
:104F80002F910F900FBE0F901F90189519BC109283
:104F900096020E948D2372CF8091E30087FD02C0AC
:104FA00081E0B2CF83E0B0CF1F920F920FB60F9285
:104FB00011242F933F934F935F936F937F938F931E
:104FC0009F93AF93BF93CF93DF93EF93FF93D091D2
:104FD000E900DF708091EC00C82FC17080FDC0E84F
:104FE0001092E9008091F000877F8093F000789420
:104FF0000E9418281092E9008091F0008860809348
:10500000F000CD2BCF70C093E900FF91EF91DF91BD
:10501000CF91BF91AF919F918F917F916F915F9150
:105020004F913F912F910F900FBE0F901F901895A9
:105030001F93CF93DF93CDB7DEB7AA970FB6F8943F
:10504000DEBF0FBECDBF87E992E0FC010196209143
:10505000F100208322E08F399207B9F70E94A8233C
:105060008091E80083FF16C1809197029091980289
:105070009A3008F00FC1E92FF0E0EE5AF44D0C948D
:10508000D72A803881F0823809F004C180919B02D0
:105090008F708093E9008091EB0085FB882780F971
:1050A0001092E90006C080919302909194029111B0
:1050B00082609091E800977F9093E8008093F100E0
:1050C0001092F1008091E8008E77E0C0882309F407
:1050D000CEC0823009F0DEC0809199028111D1C02A
:1050E00080919B028F7009F4D5C08093E9002091D4
:1050F000EB0020FFC6C0933031F48091EB0080625A
:105100008093EB00BEC09091EB0090619093EB0018
:1051100021E030E001C0220F8A95EAF72093EA00EF
:105120001092EA008091EB008860EACF8111B2C052
:10513000109199021F778091E3008078812B8093F2
:10514000E3008091E800877F8093E8000E94362684
:105150008091E80080FFFCCF8091E300806880931D
:10516000E30082E0111183E08093960293C080589F
:10517000823008F08FC08091990290919A028C3D04
:1051800023E09207A1F583E08A838AE289834FB7FF
:10519000F894DE01139620E03EE051E2E32FF0E0C8
:1051A00050935700E49120FF03C0E295EF703F5FFA
:1051B000EF708E2F90E0EA30C0F0C7968D939D93EC
:1051C0002F5F243159F74FBF8091E800877F80938C
:1051D000E8006AE270E0CE0101960E944D258091C0
:1051E000E8008B778093E80055C0C096E7CFAE010A
:1051F0004F5F5F4F60919B020E949224BC01892BFC
:1052000009F448C08091E800877F8093E800898195
:105210009A810E94A725E3CF8038E1F58091E800CC
:10522000877F8093E800809192028093F1004ACFBB
:10523000811130C090919902923060F58091E80020
:10524000877F8093E800909392020E943626809197
:105250009202882311F084E005C08091E30087FD6D
:10526000FACF81E0809396020E94942313C080912C
:105270009902813079F481E0933009F080E08093E5
:1052800094021092E9008091E800877F8093E80003
:105290000E9436268091E80083FF0AC08091E800D2
:1052A000877F8093E8008091EB0080628093EB0021
:1052B000AA960FB6F894DEBF0FBECDBFDF91CF9197
:1052C0001F9108950895CF93809196028823A1F0AD
:1052D000C091E900CF709091EC00892F817090FD12
:1052E00080E8C82B1092E9008091E80083FD0E94BD
:1052F0001828CF70C093E900CF9108950E948529A6
:105300006894B1110C94142A08950E94F92988F028
:105310009F5798F0B92F9927B751B0F0E1F0660F79
:10532000771F881F991F1AF0BA95C9F714C0B130BA
:1053300091F00E94132AB1E008950C94132A672F6C
:10534000782F8827B85F39F0B93FCCF386957795E9
:105350006795B395D9F73EF49095809570956195D2
:105360007F4F8F4F9F4F0895E89409C097FB3EF4FD
:1053700090958095709561957F4F8F4F9F4F9923A2
:10538000A9F0F92F96E9BB279395F6958795779520
:105390006795B795F111F8CFFAF4BB0F11F460FFE0
:1053A0001BC06F5F7F4F8F4F9F4F16C0882311F038
:1053B00096E911C0772321F09EE8872F762F05C04C
:1053C000662371F096E8862F70E060E02AF09A95E7
:1053D000660F771F881FDAF7880F9695879597F9DC
:1053E000089557FD9058440F551F59F05F3F71F0D5
:1053F0004795880F97FB991F61F09F3F79F087953C
:105400000895121613061406551FF2CF4695F1DFC4
:1054100008C0161617061806991FF1CF8695710554
:10542000610508940895E894BB2766277727CB0188
:1054300097F908950E942D2A0C949E2A0E94902A82
:1054400038F00E94972A20F0952311F00C94872AB7
:105450000C948D2A11240C94142A0E94F12970F3C3
:10546000959FC1F3950F50E0551F629FF001729F09
:10547000BB27F00DB11D639FAA27F00DB11DAA1F18
:10548000649F6627B00DA11D661F829F2227B00D65
:10549000A11D621F739FB00DA11D621F839FA00DF0
:1054A000611D221F749F3327A00D611D231F849F40
:1054B000600D211D822F762F6A2F11249F57504097
:1054C0009AF0F1F088234AF0EE0FFF1FBB1F661F12
:1054D000771F881F91505040A9F79E3F510580F0DB
:1054E0000C94872A0C94142A5F3FE4F3983ED4F37B
:1054F000869577956795B795F795E7959F5FC1F77F
:10550000FE2B880F911D9695879597F9089597F929
:105510009F6780E870E060E008959FEF80EC089559
:1055200000240A9416161706180609060895002482
:105530000A9412161306140605060895092E0394FC
:10554000000C11F4882352F0BB0F40F4BF2B11F470
:1055500060FF04C06F5F7F4F8F4F9F4F0895AA1B5E
:10556000BB1B51E107C0AA1FBB1FA617B70710F04E
:10557000A61BB70B881F991F5A95A9F78095909580
:10558000BC01CD01089597FB072E16F4009407D0B7
:1055900077FD09D00E94AF2A07FC05D03EF4909514
:1055A00081959F4F0895709561957F4F0895EE0FF7
:1055B000FF1F0590F491E02D0994F999FECF92BD5B
:1055C00081BDF89A992780B50895A6E1B0E044E03E
:1055D00050E00C94172BA8E1B0E042E050E00C94AE
:1055E000172B262FF999FECF92BD81BDF89A01970E
:1055F00000B4021639F01FBA20BD0FB6F894FA9A1B
:10560000F99A0FBE08950396272F0E94F22A0E944E
:10561000F12A252F0E94F22A242F0C94F22A0196B7
:10562000272F0E94F22A0C94F12ADC01CB01FC0105
:10563000F999FECF06C0F2BDE1BDF89A319600B4EB
:105640000D9241505040B8F70895F894FFCFBA0733
:10565000BF07C407C907CE07D307D80730085508C6
:10566000DD07E907ED07F107F507F907FD07010871
:10567000050809080D081108150819081D08210852
:10568000250829080B140B1463146314A714C314FE
:105690003B143B14CE143B149615961501163B147F
:1056A0003B140A16412866284A2966284A29962862
:0856B000B7284A290C2918292A
:1056B800FFF8012808140A321E9C222C230923D241
:1056C800229F2201F4F5F6F7313332369392919006
:1056D800946697C634404D3639240DD70CA10C6812
:0A56E8000CFB0B140C2D0C460C00FB
:00000001FF
